:1000000010C01DC01CC01BC01AC019C018C017C02A
:1000100016C015C014C013C012C011C010C00FC04C
:100020000EC011241FBECFEDCDBF20E0A0E6B0E092
:1000300001C01D92A236B207E1F707D17EC1E0CF21
:10004000FC016083662381F0A685B7852C9181E051
:1000500090E0028802C0880F991F0A94E2F7822B71
:100060008C9381E081870895A685B7852C9181E0E6
:1000700090E0028802C0880F991F0A94E2F7822359
:100080008C9308950F93CF93DF93EC017F876E8756
:10009000E889F98981E090E0042E02C0880F991F59
:1000A0000A94E2F780834A8B3B832A83602FCE0138
:1000B000C7DF1D821C82DF91CF910F910895FC0153
:1000C000778366834087CB01C2976817790720F44E
:1000D0006E5C7F4F778366830895CF93DF93EC0147
:1000E000688181E06827CE01ABDF8881DF91CF9105
:1000F0000895EF92FF920F931F93CF93DF9300D059
:10010000CDB7DD278C017B01DC0112962D913C914E
:10011000139725303105D0F11A82198214968D91EA
:100120009C9115976817790748F4FB01E81BF90BB8
:10013000CF01805A95419A8389830BC08617970710
:1001400019F49A83898305C0AB01481B590B5A8364
:10015000498389819A81B90176956795C7D0892BA2
:1001600069F4D80111968C91811110C0C801B5DFD6
:1001700081E0F8018183F582E48208C0D8011196FC
:100180008C911197882311F011961C92F8018081AF
:10019000882309F451C0868197818E199F0922E333
:1001A00030E0B901A3D0281B390B8085082E000C44
:1001B000990BAC01440F551F440F551F840F951F19
:1001C000AC01440F551F440F551F840F951F880F16
:1001D000991F64E670E09ED0772726173707B8F49A
:1001E0008185811110C00684F785E02D208181E092
:1001F00090E0D80152960C9002C0880F991F0A9483
:10020000E2F7822B808381E0F801818715C0D80155
:100210008185882379F00684F785E02D208181E0AF
:1002200090E052960C9002C0880F991F0A94E2F752
:1002300082238083F8011186CE5FCDBFDF91CF91FD
:100240001F910F91FF90EF900895CF93DF93CDB75B
:10025000DD27C652CDBF01E024EF31E046E06BE37D
:1002600070E0CE0144960EDF6091600070916100F5
:1002700044E1CE01449623DF00E024EF31E047E083
:100280006BE370E0CE010196FDDE6091600070913D
:1002900061004FE5CE01019612DF809160009091E0
:1002A000610001969093610080936000609160000E
:1002B00070916100CE0144961CDF609160007091E6
:1002C0006100CE01019615DF809160009091610080
:1002D00080369A4E10F380916000909161008056B4
:1002E0009A4E9093610080936000D7CFAA1BBB1BEE
:1002F00051E107C0AA1FBB1FA617B70710F0A61B26
:10030000B70B881F991F5A95A9F780959095BC0146
:10031000CD01089597FB072E16F4009406D077FDC3
:1003200008D0E4DF07FC05D03EF4909581959F4FFF
:0E0330000895709561957F4F0895F894FFCF62
:00000001FF
